:020000040800F2
:1000000028070020450100084D0100084F010008A5
:1000100051010008530100085501000800000000CC
:100020000000000000000000000000005701000870
:1000300059010008000000005B0100085D01000894
:100040005F0100085F0100085F0100085F01000810
:100050005F0100085F0100085F0100085F01000800
:100060005F0100085F0100085F0100085F010008F0
:100070005F0100085F0100085F0100085F010008E0
:100080005F0100085F0100085F0100085F010008D0
:100090005F0100085F0100085F0100085F010008C0
:1000A0005F0100085F0100085F0100085F010008B0
:1000B0005F0100085F0100085F0100085F010008A0
:1000C0005F0100085F0100085F0100085F01000890
:1000D0005F0100085F0100085F0100085F01000880
:1000E0005F0100085F0100085F0100085F01000870
:1000F0005F0100085F0100085F0100085F01000860
:100100005F0100085F0100085F0100085F0100084F
:100110005F0100085F0100085F0100085F0100083F
:100120005F0100085F0100085F0100085F0100082F
:10013000DFF80CD000F02AF8004800476D030008F3
:10014000280700200648804706480047FEE7FEE7EC
:10015000FEE7FEE7FEE7FEE7FEE7FEE7FEE7FEE777
:10016000ED020008310100080649074A08685043BB
:1001700043F23902104408604008704701490860A2
:1001800070470000000000206D4EC641064C074D30
:1001900006E0E06840F0010394E807009847103457
:1001A000AC42F6D3FFF7C8FFB0030008D003000845
:1001B000F0B50346002421E000201AE053F8207037
:1001C000461C53F82660B74212DD53F82050461CF7
:1001D00053F8266043F82060461C43F8265051F837
:1001E000205051F8266041F82060461C41F8265006
:1001F000401C161B761E8642E0DC641C561EA6427E
:10020000DADCF0BD10B500F001F810BD0CB500202F
:10021000019000903348006840F480303149086014
:1002200000BF3048006800F4003000900198401C86
:100230000190009818B90198B0F5A06FF1D1294844
:10024000006800F4003010B10120009001E00020AF
:1002500000900098012843D12348006840F0100026
:10026000214908600846006820F00300086008463D
:10027000006840F0020008601A4840681949486068
:100280000846406848600846406840F4806048601E
:100290000846406820F47C1048600846406840F4F6
:1002A000E81048600846006840F08070086000BFB1
:1002B0000C48006800F000700028F9D00948406838
:1002C00020F00300074948600846406840F00200FB
:1002D000486000BF0348406800F00C000828F9D1CE
:1002E0000CBD0000001002400020024010B5134871
:1002F000006840F001001149086008464068104954
:1003000008400E494860084600680E4908400B49FD
:1003100008600846006820F48020086008464068AD
:1003200020F4FE0048604FF41F008860FFF76AFF6A
:100330004FF000600449086010BD0000001002404A
:100340000000FFF8FFFFF6FE08ED00E002E008C83D
:10035000121F08C1002AFAD170477047002001E03F
:1003600001C1121F002AFBD17047000000240AE0DF
:10037000FFF7FAFE652190FBF1F201FB12000A493A
:1003800041F82400641C642CF2D3002403E00748E5
:1003900040F82440641C642CF9D31E22034902480F
:1003A000FFF706FF00BFFEE70400002094010020D5
:1003B000D003000800000020040000004C030008E7
:1003C000D403000804000020240700005C03000898
:0403D0000000000029
:0400000508000131BD
:00000001FF
