:020000040800F2
:1000000098050020450100084D0100084F01000837
:1000100051010008530100085501000800000000CC
:100020000000000000000000000000005701000870
:1000300059010008000000005B0100085D01000894
:100040005F0100085F0100085F0100085F01000810
:100050005F0100085F0100085F0100085F01000800
:100060005F0100085F0100085F0100085F010008F0
:100070005F0100085F0100085F0100085F010008E0
:100080005F0100085F0100085F0100085F010008D0
:100090005F0100085F0100085F0100085F010008C0
:1000A0005F0100085F0100085F0100085F010008B0
:1000B0005F0100085F0100085F0100085F010008A0
:1000C0005F0100085F0100085F0100085F01000890
:1000D0005F0100085F0100085F0100085F01000880
:1000E0005F0100085F0100085F0100085F01000870
:1000F0005F0100085F0100085F0100085F01000860
:100100005F0100085F0100085F0100085F0100084F
:100110005F0100085F0100085F0100085F0100083F
:100120005F0100085F0100085F0100085F0100082F
:10013000DFF80CD000F02AF8004800471903000847
:10014000980500200648804706480047FEE7FEE77E
:10015000FEE7FEE7FEE7FEE7FEE7FEE7FEE7FEE777
:1001600099020008310100080649074A086850430F
:1001700043F23902104408604008704701490860A2
:1001800070470000000000206D4EC641064C074D30
:1001900006E0E06840F0010394E807009847103457
:1001A000AC42F6D3FFF7C8FF400300086003000825
:1001B00010B500F001F810BD0CB5002001900090C2
:1001C0003348006840F480303149086000BF30484F
:1001D000006800F4003000900198401C01900098E5
:1001E00018B90198B0F5A06FF1D12948006800F462
:1001F000003010B10120009001E000200090009834
:10020000012843D12348006840F0100021490860CC
:100210000846006820F0030008600846006840F0C7
:10022000020008601A48406819494860084640685A
:1002300048600846406840F480604860084640686E
:1002400020F47C1048600846406840F4E81048609C
:100250000846006840F08070086000BF0C480068E5
:1002600000F000700028F9D00948406820F0030031
:10027000074948600846406840F00200486000BFF7
:100280000348406800F00C000828F9D10CBD0000BC
:10029000001002400020024010B51348006840F0F2
:1002A00001001149086008464068104908400E499D
:1002B0004860084600680E4908400B490860084637
:1002C000006820F4802008600846406820F4FE00A2
:1002D00048604FF41F008860FFF76AFF4FF000602E
:1002E0000449086010BD0000001002400000FFF843
:1002F000FFFFF6FE08ED00E002E008C8121F08C18B
:10030000002AFAD170477047002001E001C1121F96
:10031000002AFBD17047000000240AE0FFF724FF09
:10032000652190FBF1F201FB1200044941F8240021
:10033000641C642CF2D300BFFEE700000400002020
:10034000600300080000002004000000F80200081C
:10035000640300080400002094050000080300085E
:040360000000000099
:0400000508000131BD
:00000001FF
