:020000040800F2
:1000000008040020450100084D0100084F010008C8
:1000100051010008530100085501000800000000CC
:100020000000000000000000000000005701000870
:1000300059010008000000005B0100085D01000894
:100040005F0100085F0100085F0100085F01000810
:100050005F0100085F0100085F0100085F01000800
:100060005F0100085F0100085F0100085F010008F0
:100070005F0100085F0100085F0100085F010008E0
:100080005F0100085F0100085F0100085F010008D0
:100090005F0100085F0100085F0100085F010008C0
:1000A0005F0100085F0100085F0100085F010008B0
:1000B0005F0100085F0100085F0100085F010008A0
:1000C0005F0100085F0100085F0100085F01000890
:1000D0005F0100085F0100085F0100085F01000880
:1000E0005F0100085F0100085F0100085F01000870
:1000F0005F0100085F0100085F0100085F01000860
:100100005F0100085F0100085F0100085F0100084F
:100110005F0100085F0100085F0100085F0100083F
:100120005F0100085F0100085F0100085F0100082F
:10013000DFF80CD000F018F800480047E90A000882
:10014000080400200648804706480047FEE7FEE70F
:10015000FEE7FEE7FEE7FEE7FEE7FEE7FEE7FEE777
:100160001109000831010008064C074D06E0E0685F
:1001700040F0010394E8070098471034AC42F6D3EE
:10018000FFF7DAFFF80B0008180C000821B18268AD
:1001900042F00102826003E0826822F00102826084
:1001A000704721B1826842F48072826003E0826805
:1001B00022F4807282607047014600208A6802F053
:1001C00004020AB1012000E000207047014600202F
:1001D0008A6802F008020AB1012000E0002070479E
:1001E000014600208A6802F480020AB1012000E082
:1001F0000020704730B502460020002350680F4CA5
:1002000020400D790C6844EA052420435060906832
:100210000B4C2040D1E902542C434D7944EA45046B
:1002200020439060D06A20F470000C7C641EE4B21D
:10023000234340EA0350D06230BD0000FFFEF0FFD0
:10024000FDF7F1FFF0B504460D4600200021092D11
:1002500011DDE068A5F10A0606EB4607072606FA57
:1002600007F18843A5F10A0606EB460603FA06F1F4
:100270000843E0600CE0206905EB4507072606FA15
:1002800007F1884305EB450603FA06F108432061B0
:10029000072A0FDA606B561E06EB86071F2606FA42
:1002A00007F18843561E06EB860605FA06F1084359
:1002B000606322E00D2A0FDA206BD61F06EB86075B
:1002C0001F2606FA07F18843D61F06EB860605FAB5
:1002D00006F10843206310E0E06AA2F10D0606EB88
:1002E00086071F2606FA07F18843A2F10D0606EBE2
:1002F000860605FA06F10843E062F0BD816841F028
:1003000008018160704721B1826842F4A0028260D6
:1003100003E0826822F4A00282607047816841F0A5
:1003200004018160704721B1026842F0010202605D
:1003300004E002684FF6FE731A4002607047000046
:1003400001684FF6FE7211400160002101604160BA
:100350008160C1604B49884208D14A4908394968DF
:1003600041F00F01474A083A51608AE0454914318B
:10037000884208D143490839496841F0F001414AAF
:10038000083A51607DE03F492831884208D13D4913
:100390000839496841F470613A4A083A516070E09E
:1003A00038493C31884208D136490839496841F416
:1003B0007041344A083A516063E032495031884212
:1003C00008D130490839496841F470212D4A083A6A
:1003D000516056E02B496431884208D129490839D7
:1003E000496841F47001274A083A516049E02549BB
:1003F0007831884208D123490839496841F0706151
:10040000204A083A51603CE01F49884206D1011F4A
:10041000096841F00F01021F116032E01A491431DE
:10042000884208D11849091F096841F0F001164AAD
:10043000121F116025E014492831884208D1124961
:10044000091F096841F470610F4A121F116018E01A
:100450000D493C31884208D10B49091F096841F414
:100460007041094A121F11600BE007495031884260
:1004700007D10549091F096841F47021024A121F7A
:100480001160704708000240080402401AB1036876
:100490000B43036002E003688B430360704710B5B1
:1004A0000022026847F6F0739A430C6A8B68234374
:1004B0000C6923434C6923438C692343CC69234350
:1004C0004C6A23438C6A23431A430260CB6843601F
:1004D0000B6883604B68C36010BD00000549096864
:1004E00021F01001034A11601146096801431160AF
:1004F000704700000020024001460020034A1068B7
:1005000000F03800084310607047000000200240EF
:100510002DE9F0410246002500260020002300249A
:10052000002791F803C00CF00F0591F803C00CF000
:10053000100CBCF1000F03D091F802C04CEA050585
:1005400091F800C0BCF1000F31D0146800202BE0FE
:100550004FF0010C0CFA00F3B1F800C00CEA0306EE
:100560009E4220D183004FF00F0C0CFA03F7BC43DE
:1005700005FA03FC4CEA040491F803C0BCF1280F0F
:1005800006D14FF0010C0CFA00FCC2F814C00AE0CE
:1005900091F803C0BCF1480F05D14FF0010C0CFAE3
:1005A00000FCC2F810C0401C0828D1D31460B1F878
:1005B00000C0BCF1FF0F34DD546800202EE000F1D4
:1005C000080C4FF0010808FA0CF3B1F800C00CEA6F
:1005D00003069E4221D183004FF00F0C0CFA03F763
:1005E000BC4305FA03FC4CEA040491F803C0BCF1D7
:1005F000280F05D100F1080C08FA0CF8C2F8148095
:1006000091F803C0BCF1480F07D100F1080C4FF07E
:10061000010808FA0CF8C2F81080401C0828CED354
:100620005460BDE8F0814161704700000146002040
:10063000034A506820F4404008435060704700006F
:100640000010024029B1064A52690243044B5A6124
:1006500004E0034A52698243014B5A61704700002B
:100660000010024029B1064A92690243044B9A6184
:1006700004E0034A92698243014B9A61704700008B
:10068000001002400F48006840F001000D4908606A
:10069000084640680C4908400A4948600846006816
:1006A0000A490840074908600846006820F480208D
:1006B00008600846406820F4FE0048604FF41F00C0
:1006C00088607047001002400000FFF8FFFFF6FE50
:1006D00010B501460022002300204A11012A02D150
:1006E000094C236806E0022A02D1074C236A01E084
:1006F000054C636A01F01F02012494401C400CB1B8
:10070000012000E0002010BD0010024002484068B7
:1007100000F00C007047000000100240014600206D
:10072000034A506820F0F000084350607047000012
:10073000001002401149096821F480310F4A11600C
:100740001146096821F480211160B0F5803F03D083
:10075000B0F5802F0ED106E00849096841F48031D8
:10076000064A116007E00549096841F4A021034ADF
:10077000116000E000BF00BF7047000000100240A1
:1007800001460020034A506820F4E06008435060AE
:10079000704700000010024001460020034A5068E4
:1007A00020F4605040EAC1005060704700100240E1
:1007B00001490866704700000000424202460020DE
:1007C000044B586820F47C1042EA01031843014BA3
:1007D000586070470010024001460020034A5068EC
:1007E00020F00300084350607047000000100240F2
:1007F00038B5002000900024002500BF3120FFF70D
:1008000067FF05460098401C00900098B0F5A06F67
:1008100001D0002DF2D03120FFF75AFF08B101249A
:1008200000E00024204638BD10B500F001F810BDEE
:100830000CB50020019000903348006840F48030EF
:100840003149086000BF3048006800F40030009073
:100850000198401C0190009818B90198B0F5A06F5C
:10086000F1D12948006800F4003010B10120009057
:1008700001E0002000900098012843D1234800683F
:1008800040F01000214908600846006820F003008D
:1008900008600846006840F0020008601A48406896
:1008A000194948600846406848600846406840F476
:1008B000806048600846406820F47C104860084624
:1008C000406840F4E81048600846006840F08070D6
:1008D000086000BF0C48006800F000700028F9D0E4
:1008E0000948406820F0030007494860084640680E
:1008F00040F00200486000BF0348406800F00C0070
:100900000828F9D10CBD0000001002400020024070
:1009100010B51348006840F001001149086008460E
:100920004068104908400E494860084600680E4972
:1009300008400B4908600846006820F480200860E1
:100940000846406820F4FE0048604FF41F008860AD
:10095000FFF76AFF4FF000600449086010BD000017
:10096000001002400000FFF8FFFFF6FE08ED00E077
:1009700002E008C8121F08C1002AFAD17047704768
:10098000002001E001C1121F002AFBD170470000C6
:1009900000B585B00020009001208DF804008DF88E
:1009A00005004FF4602002900020039001208DF894
:1009B000100069461748FFF71DFC01231A46002165
:1009C0001448FFF73FFC01211248FFF7EAFB012121
:1009D0001048FFF7DBFB0F48FFF790FC00BF0D4806
:1009E000FFF7F4FB0028FAD10A48FFF797FC00BF95
:1009F0000848FFF7E1FB0028FAD101210548FFF77D
:100A000082FC00BF0348FFF7EBFB0028FAD105B0DA
:100A100000BD00000024014007E0002100E0491C67
:100A20004CF250329142FAD3401E0028F5D1704763
:100A300000B58BB01348FFF783FC134800901348B0
:100A4000019000200290012003900020049080205B
:100A50000590400006908000079020200890C0017B
:100A6000099000200A9069460648FFF718FD002209
:100A700002210448FFF70AFD01210248FFF753FC59
:100A80000BB000BD080002404C24014004000020CF
:100A900008B57820ADF8000010208DF80300012083
:100AA0008DF8020069460948FFF732FD78210748B2
:100AB000FFF7B9FD0120ADF8000000208DF803001C
:100AC00069460348FFF724FD08BD000000140140FB
:100AD0000008014010B500F043F8FFF7D9FFFFF719
:100AE00057FFFFF7A5FF10BDFFF7F4FF33E01A48EB
:100AF0000068B0F54D7F00D2002417480068B0F5BB
:100B00004D7F05D314480068B0F5CD6F00D208249E
:100B100011480068B0F5CD6F06D30F48006840F665
:100B20009C11884200D218240B48006840F69C11A2
:100B3000884205D308480068B0F54D6F00D23824CC
:100B400005480068B0F54D6F00D378240348046071
:100B50001E20FFF761FFCAE7040000200C140140CB
:100B600010B5FFF78FFD4FF48030FFF7E3FDFFF77F
:100B70003FFE2049087008460078012805D14FF44F
:100B8000E0110004FFF71AFE04E04FF460110020AA
:100B9000FFF714FE1020FFF7A1FC0220FFF7ACFCCA
:100BA0000020FFF7BBFD4FF48060FFF7E9FD002058
:100BB000FFF7F2FD4FF40040FFF738FD0120FFF78B
:100BC000F7FD00BF3920FFF783FD0028FAD002208F
:100BD000FFF702FE00BFFFF799FD0828FBD10121B6
:100BE0001520FFF72FFD01214FF40870FFF73AFDA4
:100BF00010BD000000000020180C000800000020BC
:100C00000800000070090008200C000808000020FF
:100C1000000400008009000801000000000000003E
:0400000508000131BD
:00000001FF
