:020000040800F2
:100000001004002045010008EB020008E30200088C
:10001000E70200088D010008050800080000000044
:10002000000000000000000000000000A50500081E
:1000300091010008000000008503000891060008F7
:100040005F0100085F0100085F0100085F01000810
:100050005F0100085F0100085F0100085F01000800
:100060005F0100085F0100085F0100085F010008F0
:100070005F0100085F0100085F0100085F010008E0
:100080005F0100085F0100085F0100085F010008D0
:100090005F0100085F0100085F0100085F010008C0
:1000A0005F0100085F0100085F0100085F010008B0
:1000B000F50600085F0100085F0100085F01000805
:1000C0005F0100085F0100085F0100085F01000890
:1000D0005F0100085F0100085F0100085F01000880
:1000E0005F0100085F0100085F0100085F01000870
:1000F0005F0100085F0100085F0100085F01000860
:100100005F0100085F0100085F0100085F0100084F
:100110005F0100085F0100085F0100085F0100083F
:100120005F0100085F0100085F0100085F0100082F
:10013000DFF80CD000F018F8004800476908000804
:10014000100400200648804706480047FEE7FEE707
:10015000FEE7FEE7FEE7FEE7FEE7FEE7FEE7FEE777
:100160009506000831010008064C074D06E0E068DE
:1001700040F0010394E8070098471034AC42F6D3EE
:10018000FFF7DAFF8C090008AC09000800BFFEE7A2
:10019000704700000549096821F01001034A116009
:1001A00011460968014311607047000000200240B9
:1001B00001460020034A106800F038000843106030
:1001C00070470000002002402DE9F0410246002562
:1001D0000026002000230024002791F803C00CF023
:1001E0000F0591F803C00CF0100CBCF1000F03D008
:1001F00091F802C04CEA050591F800C0BCF1000F6F
:1002000031D0146800202BE04FF0010C0CFA00F301
:10021000B1F800C00CEA03069E4220D183004FF0E3
:100220000F0C0CFA03F7BC4305FA03FC4CEA040478
:1002300091F803C0BCF1280F06D14FF0010C0CFA65
:1002400000FCC2F814C00AE091F803C0BCF1480FEA
:1002500005D14FF0010C0CFA00FCC2F810C0401C94
:100260000828D1D31460B1F800C0BCF1FF0F34DD11
:10027000546800202EE000F1080C4FF0010808FA45
:100280000CF3B1F800C00CEA03069E4221D18300B2
:100290004FF00F0C0CFA03F7BC4305FA03FC4CEAD1
:1002A000040491F803C0BCF1280F05D100F1080C3B
:1002B00008FA0CF8C2F8148091F803C0BCF1480F9A
:1002C00007D100F1080C4FF0010808FA0CF8C2F849
:1002D0001080401C0828CED35460BDE8F0814161F5
:1002E000704700BFFEE700BFFEE7704770B5002112
:1002F00000230F22C47804B3154C246804F4E0648E
:10030000C4F5E064210AC1F10403CA40447804FA48
:1003100003F184781440214309010E4C0678A1555D
:10032000047804F01F050124AC4005786D11AD0080
:1003300005F1E025C5F8004109E0047804F01F0547
:100340000124AC40044D0678761145F8264070BD76
:100350000CED00E000E400E080E100E00249014330
:10036000024A1160704700000000FA050CED00E041
:10037000024A0A400243024B1A60704780FFFF1F87
:1003800008ED00E07047000001460020034A506875
:1003900020F44040084350607047000000100240C5
:1003A00029B1064A52690243044B5A6104E0034AE8
:1003B00052698243014B5A617047000000100240AD
:1003C00029B1064AD2690243044BDA6104E0034AC8
:1003D000D2698243014BDA6170470000001002408D
:1003E00029B1064A92690243044B9A6104E0034A28
:1003F00092698243014B9A617047000000100240ED
:100400000F48006840F001000D4908600846406848
:100410000C4908400A494860084600680A490840F3
:10042000074908600846006820F4802008600846F4
:10043000406820F4FE0048604FF41F008860704759
:10044000001002400000FFF8FFFFF6FE10B5014665
:100450000022002300204A11012A02D1094C2368FE
:1004600006E0022A02D1074C236A01E0054C636AC8
:1004700001F01F02012494401C400CB1012000E057
:10048000002010BD001002400248406800F00C003F
:10049000704700000010024001460020034A5068E7
:1004A00020F0F00008435060704700000010024048
:1004B0001149096821F480310F4A11601146096819
:1004C00021F480211160B0F5803F03D0B0F5802F7A
:1004D0000ED106E00849096841F48031064A1160EE
:1004E00007E00549096841F4A021034A116000E0D2
:1004F00000BF00BF7047000000100240014600200E
:10050000034A506820F4E0600843506070470000E0
:100510000010024001460020034A506820F4605059
:1005200040EAC1005060704700100240014908666F
:10053000704700000000424202460020044B586809
:1005400020F47C1042EA01031843014B58607047C5
:100550000010024001460020034A506820F00300CA
:1005600008435060704700000010024038B500207A
:1005700000900024002500BF3120FFF767FF0546EB
:100580000098401C00900098B0F5A06F01D0002D9D
:10059000F2D03120FFF75AFF08B1012400E0002417
:1005A000204638BD704710B500F002F810BD0000BD
:1005B0000CB50020019000903348006840F4803072
:1005C0003149086000BF3048006800F400300090F6
:1005D0000198401C0190009818B90198B0F5A06FDF
:1005E000F1D12948006800F4003010B101200090DA
:1005F00001E0002000900098012843D123480068C2
:1006000040F01000214908600846006820F003000F
:1006100008600846006840F0020008601A48406818
:10062000194948600846406848600846406840F4F8
:10063000806048600846406820F47C1048600846A6
:10064000406840F4E81048600846006840F0807058
:10065000086000BF0C48006800F000700028F9D066
:100660000948406820F00300074948600846406890
:1006700040F00200486000BF0348406800F00C00F2
:100680000828F9D10CBD00000010024000200240F3
:100690007047000010B51348006840F00100114990
:1006A000086008464068104908400E4948600846FE
:1006B00000680E4908400B4908600846006820F4AD
:1006C000802008600846406820F4FE0048604FF42F
:1006D0001F008860FFF767FF4FF000600449086063
:1006E00010BD0000001002400000FFF8FFFFF6FE02
:1006F00008ED00E010B50121880700F018F808485F
:10070000006830B901200649086078200549086072
:1007100004E00020024908600249086010BD0000A2
:10072000040000200C140140CA4302827047CA43EF
:100730000282704721B1028842F00102028004E087
:1007400002884FF6FE731A40028070471AB18389FF
:100750000B43838102E083898B43838170470000D0
:10076000002202881D4B98420ED01D4B98420BD0A0
:10077000B0F1804F08D01B4B984205D01A4B9842DD
:1007800002D01A4B984204D14FF68F731A404B880F
:100790001A43174B984207D0164B984204D04FF695
:1007A000FF431A40CB881A4302808B8883850B88CD
:1007B00003850A4B98420BD0094B984208D00E4B48
:1007C000984205D00D4B984202D00D4B984201D172
:1007D0000B7A03860123838270470000002C0140BE
:1007E000003401400004004000080040000C0040BC
:1007F000001000400014004000400140004401404F
:100800000048014000BFFEE702E008C8121F08C10F
:10081000002AFAD170477047002001E001C1121F81
:10082000002AFBD17047000008B57820ADF8000021
:1008300010208DF8030001208DF80200694604485D
:10084000FFF7C2FC78210248FFF749FD08BD000010
:100850000014014010B500F029F8FFF7E5FF00F0A3
:100860000BF800F071F810BDFFF7F4FF01218807C5
:10087000FFF760FF00BFFEE708B500214FF0006002
:10088000FFF776FD4FF4A060FFF768FD1C208DF8A0
:10089000000002208DF8010000208DF802000120E8
:1008A0008DF803006846FFF721FD08BD10B5FFF77E
:1008B000A7FD4FF48030FFF7FBFDFFF757FE2149FE
:1008C000087008460078012805D14FF4E0110004B3
:1008D000FFF732FE04E04FF460110020FFF72CFE1A
:1008E0001020FFF757FC0220FFF762FC0020FFF703
:1008F000D3FD4FF48060FFF701FE0020FFF70AFEF2
:100900004FF40040FFF740FD0120FFF70FFE00BF4E
:100910003920FFF79BFD0028FAD00220FFF71AFECE
:1009200000BFFFF7B1FD0828FBD101211520FFF71B
:1009300037FD01212020FFF753FD01210846FFF775
:100940003FFD10BD000000200EB542F20F70ADF863
:10095000040041F61F40ADF800000020ADF806008D
:10096000ADF8020069464FF08040FFF7F9FE012123
:100970008807FFF7D9FE012211469007FFF7E6FE30
:1009800000214FF08040FFF7D5FE0EBDAC090008F6
:10099000000000200C00000008080008B80900084A
:1009A0000C000020040400001808000801000000EA
:0809B000000000000800000037
:0400000508000131BD
:00000001FF
